:100C4200EF1FAC0670011E4C600A7D027CEFDCFED9
:040C5200DDFC80EC59
:010C5600227B
:060C7B00C2A58F80D2A784
:080C81007F027EEFDEFEDFFCC6
:010C89002248
:0A0C9800C2A6120C7BC2A7020C8159
:100BEF00CFCDCFCECCCE12083F7C007D0A12083F6E
:040BFF00ED2430FFB2
:0A0C0300D2A6120C7BC2A7020C81DE
:100C0D00AE07EEFB7A0064017004ED148009EB640D
:0E0C1D00024A7009ED243F4480FF120C982219
:100C57007F38120C987F0C120C987F06120C987F25
:040C670001020C98E2
:0A0CA200AC03120C0DAF04020C03AA
:060BCC008B088A09890A6A
:100BD200120C0DE4FDAB08AA09A90A8D82758300E7
:0C0BE200120800FF6006120C030D80E9F1
:010BEE0022E4
:0A0B7700EF24FFFDEE34FFFC7F0ABF
:080B81008E0D8F0E8C0F8D10FC
:100B89007F017E00E4FBEBC39510E50F6480F874E8
:0E0B99008098500AAC0DAD0E12082D0B80E8AE
:010BA700222B
:040BA8008A0A8B0B1F
:100BAC00120C0DAA0CEAFF7E00D394007480948082
:0F0BBC00400D120B77AC0AAD0B120BEF1A80E64F
:010BCB002207
:040AAC008B828A832C
:100AB000120C0DC3E58364809480400D7F2B120CD3
:100AC0000385831685821780107F2D120C03C3E4E3
:100AD0009582F517E49583F516AA15EAFF7E00D3F3
:100AE000940074809480400D120B77AC16AD1712F1
:050AF0000BEF1A80E687
:010AF50022DE
:040A61008A238B2435
:100A6500120C0DAA25EAD39400748094804037EACD
:100A750024FFFDE434FFFC7F107E00120B81AC23C4
:100A8500AD24CFCDCFCECCCE12083FEF540FFEC351
:100A9500940A74809480EE5004243080022437FF39
:060AA500120C031A80BFD1
:010AAB002228
:040B3A008A288B2951
:100B3E00120C0DAA2AEAFF7E00D3940074809480D2
:100B4E004026EF24FFFDEE34FFFC7F02120B81AC3A
:100B5E0028AD29CFCDCFCECCCE12083FEF540124F5
:080B6E0030FF120C031A80CDC8
:010B7600225C
:0E0C8A00436C6F636B3A0020203A20203A0042
:0F0C6B00011A37011C1D011B02C100021D0000F0
:1009B200120C57120C2B120CAC120CB17BFF7A0CDE
:1009C200798A7D017F01120BCC7BFF7A0C79917DB4
:1009D200017F02120BCCE51BFB7A00750C027D0134
:1009E2007F02120BA8E51CFB7A00750C027D047FC6
:1009F20002120BA8E51AFB7A00750C027D077F0232
:100A0200120BA8750C02AB1EAA1D7D0F7F02120BE2
:030A1200A880C3F6
:03000B0002089454
:10089400C0E0C0F0C083C082C0D075D000C000C02A
:0D08A40001C002C003C004C005C006C007AB
:1008B100758A18758CFC0519E51970020518C39421
:1008C100E8E51894034043751800751900300002DB
:1008D100051AC3E51A943C74809480402DC2907F20
:1008E100C87E00120C42D290751A00051CC3E51C8B
:1008F100943C748094804012751C00051BE51B9488
:0A09010018748094804003751B00F9
:10090B00D007D006D005D004D003D002D001D00040
:0B091B00D0D0D082D083D0F0D0E032EA
:050CAC00D288D2A8224D
:050CB100D28AD2AA2244
:03000300020A15D9
:100A1500C0E0C0F0C083C082C0D075D000C000C0A7
:100A250001C002C003C004C005C006C007051EE51D
:100A35001E7002051D7F147E00120C4220B202D2E8
:100A450000D007D006D005D004D003D002D001D005
:0C0A550000D0D0D082D083D0F0D0E032AE
:03001300020AF6E8
:100AF600C0E0C0F0C083C082C0D075D000C000C0C6
:100B060001C002C003C004C005C006C0077F147E32
:100B160000120C4220B302C200D007D006D005D086
:100B260004D003D002D001D000D0D0D082D083D060
:040B3600F0D0E032E9
:100C2B005389F0438901758AFC758C18C28DD28C5F
:070C3B00D2A9D2AFC2B92219
:03000000020926CC
:0C092600787FE4F6D8FD75812A02096D87
:10080000BB010CE58229F582E5833AF583E02250AD
:1008100006E92582F8E622BBFE06E92582F8E222F7
:0D082000E58229F582E5833AF583E4932211
:10082D00EF8DF0A4A8F0CF8CF0A428CE8DF0A42EDF
:02083D00FE2299
:10083F00BC000BBE0029EF8DF084FFADF022E4CC9D
:10084F00F875F008EF2FFFEE33FEEC33FCEE9DEC66
:10085F00984005FCEE9DFE0FD5F0E9E4CEFD22EDAC
:10086F00F8F5F0EE8420D21CFEADF075F008EF2FF6
:10087F00FFED33FD4007985006D5F0F222C398FDE7
:05088F000FD5F0EA2284
:100932000209B2E493A3F8E493A34003F68001F220
:1009420008DFF48029E493A3F85407240CC8C333C6
:10095200C4540F4420C8834004F456800146F6DF95
:10096200E4800B0102040810204080900C6BE47EAE
:10097200019360BCA3FF543F30E509541FFEE4938A
:10098200A360010ECF54C025E060A840B8E493A351
:10099200FAE493A3F8E493A3C8C582C8CAC583CA7C
:1009A200F0A3C8C582C8CAC583CADFE9DEE780BE34
:010C7A000079
:00000001FF
