:100CA800EF1FAC0670011E4C600A7D027CEFDCFE73
:040CB800DDFC80ECF3
:010CBC002215
:060CD100C2A58F80D2A72E
:080CD7007F027EEFDEFEDFFC70
:010CDF0022F2
:0A0CF700C2A6120CD1C2A7020CD74E
:100C6C00CFCDCFCECCCE1209C87C007D0A1209C8DC
:040C7C00ED2430FF34
:0A0C8000D2A6120CD1C2A7020CD7B5
:100C8A00AE07EEFB7A0064017004ED148009EB6490
:0E0C9A00024A7009ED243F4480FF120CF7223D
:100CBD007F38120CF77F0C120CF77F06120CF77FA2
:040CCD0001020CF71D
:0A0D0100AC03120C8AAF04020C8050
:060C49008B118A128913D1
:100C4F00120C8AE4FDAB11AA12A9138D82758300D1
:0C0C5F00120989FF6006120C800D80E96C
:010C6B002266
:0A0B5100EF24FFFDEE34FFFC7F0AE5
:080B5B008E168F178C188D19FE
:100B63007F017E00E4FBEBC39519E5186480F874FC
:0E0B73008098500AAC16AD171209B60B80E838
:010B81002251
:040C25008A138B148F
:100C2900120C8AAA15EAFF7E00D39400748094807E
:0F0C3900400D120B51AC13AD14120C6C1A80E667
:010C48002289
:040ACA008B828A830E
:100ACE00120C8AC3E58364809480400D7F2B120C38
:100ADE008085831F85822080107F2D120C80C3E4B9
:100AEE009582F520E49583F51FAA1EEAFF7E00D3BA
:100AFE00940074809480400D120B51AC1FAD2012E7
:050B0E000C6C1A80E6EA
:010B130022BF
:040A7F008A238B2417
:100A8300120C8AAA25EAD39400748094804037EA32
:100A930024FFFDE434FFFC7F107E00120B5BAC23CC
:100AA300AD24CFCDCFCECCCE1209C8EF540FFEC3A9
:100AB300940A74809480EE5004243080022437FF1B
:060AC300120C801A80BF36
:010AC900220A
:040B14008A288B2977
:100B1800120C8AAA2AEAFF7E00D39400748094807B
:100B28004026EF24FFFDEE34FFFC7F02120B5BAC86
:100B380028AD29CFCDCFCECCCE1209C8EF54012491
:080B480030FF120C801A80CD71
:010B50002282
:10080000E4F5117590FFC2932097137F14FE120C2C
:10081000A83097FD7F147E00120CA8751110209649
:10082000147F147E00120CA83096FD7F147E0012F7
:100830000CA875110C2095147F147E00120CA830A2
:1008400095FD7F147E00120CA87511082094147F6A
:10085000147E00120CA83094FD7F147E00120CA8A8
:100860007511047590FFC2922097147F147E0012B8
:100870000CA83097FD7F147E00120CA875110F2074
:1008800096147F147E00120CA83096FD7F147E0013
:10089000120CA875110B2095147F147E00120CA861
:1008A0003095FD7F147E00120CA87511072094145A
:1008B0007F147E00120CA83094FD7F147E00120C71
:1008C000A87511037590FFC2912097147F147E00C4
:1008D000120CA83097FD7F147E00120CA875110E23
:1008E0002096147F147E00120CA83096FD7F147E93
:1008F00000120CA875110A2095147F147E00120CAA
:10090000A83095FD7F147E00120CA8751106209466
:10091000147F147E00120CA83094FD7F147E001208
:100920000CA87511027590FFC2902097147F147E59
:1009300000120CA83097FD7F147E00120CA87511D0
:100940000C2096147F147E00120CA83096FD7F14A4
:100950007E00120CA87511092095147F147E0012D8
:100960000CA83095FD7F147E00120CA8751105208F
:1009700094147F147E00120CA83094FD7F147E0026
:08098000120CA8751101AF1162
:01098800224C
:0B0CEC004D61747269784B65793A0025
:03000300020A1DD1
:100A1D00C0E0C0F0C083C082C0D075D000C000C09F
:100A2D0001C002C003C004C005C006C007E52BFB12
:100A3D007A007515027D017F02120C25C2A07FC8B8
:100A4D007E00120CA8D2A07FE87E03120CA8120B18
:100A5D00B0120BD7120BFED007D006D005D004D0A4
:100A6D0003D002D001D000D0D0D082D083D0F0D02E
:020A7D00E03265
:100B8200120CBD7BFF7A0C79EC7D017F01120C49BE
:100B9200D288D2A8D2AF1208008F2BE52B60F7FBC8
:0E0BA2007A007515027D017F02120C2580E895
:100BB000E4F508C3E508940374809480501875B078
:100BC000AA7FF47E01120CA875B0557FF47E011245
:060BD0000CA8050880DD01
:010BD60022FC
:100BD700E4F508C3E508940374809480501875B051
:100BE7000F7FF47E01120CA875B0F07FF47E01121E
:060BF7000CA8050880DDDA
:010BFD0022D5
:100BFE00E4F508C3E508940374809480501875B02A
:100C0E00FF7FF47E01120CA8E4F5B07FF47E011292
:060C1E000CA8050880DDB2
:010C240022AD
:03000000020CE00F
:0C0CE000787FE4F6D8FD75812B020B82B2
:10098900BB010CE58229F582E5833AF583E0225023
:1009990006E92582F8E622BBFE06E92582F8E2226D
:0D09A900E58229F582E5833AF583E4932287
:1009B600EF8DF0A4A8F0CF8CF0A428CE8DF0A42E55
:0209C600FE220F
:1009C800BC000BBE0029EF8DF084FFADF022E4CC13
:1009D800F875F008EF2FFFEE33FEEC33FCEE9DECDC
:1009E800984005FCEE9DFE0FD5F0E9E4CEFD22ED22
:1009F800F8F5F0EE8420D21CFEADF075F008EF2F6C
:100A0800FFED33FD4007985006D5F0F222C398FD5C
:050A18000FD5F0EA22F9
:00000001FF
