:040B220002250000A8
:100A2300120AEB750C03AB26AA257D017F01120A7E
:100A3300530526E526700205257FE87E03120AD6B4
:100A4300750C03AB26AA257D017F01120A5380E1B1
:060AFF00C2A58F80D2A702
:080B05007F027EEFDEFEDFFC43
:010B0D0022C5
:0A0B0E00C2A6120AFFC2A7020B05DF
:100A9A00CFCDCFCECCCE12083F7C007D0A12083FC4
:040AAA00ED2430FF08
:0A0AAE00D2A6120AFFC2A7020B0530
:100AB800AE07EEFB7A0064017004ED148009EB6464
:0E0AC800024A7009ED243F4480FF120B0E22FB
:100AEB007F38120B0E7F0C120B0E7F06120B0E7F34
:040AFB0001020B0EDB
:0A0B1800AC03120AB8AF04020AAEE3
:060A77008B228A23892472
:100A7D00120AB8E4FDAB22AA23A9248D8275830046
:0C0A8D00120800FF6006120AAE0D80E99E
:010A9900223A
:0A09F200EF24FFFDEE34FFFC7F0A46
:0809FC008E0D8F0E8C0F8D1083
:100A04007F017E00E4FBEBC39510E50F6480F8746E
:0E0A14008098500AAC0DAD0E12082D0B80E834
:010A220022B1
:040A53008A0A8B0B75
:100A5700120AB8AA0CEAFF7E00D39400748094802F
:0F0A6700400D1209F2AC0AAD0B120A9A1A80E682
:010A7600225D
:04096B008B828A836E
:10096F00120AB8C3E58364809480400D7F2B120A6E
:10097F00AE85831685821780107F2D120AAEC3E4D1
:10098F009582F517E49583F516AA15EAFF7E00D335
:10099F00940074809480400D1209F2AC16AD1712BA
:0509AF000A9A1A80E61F
:0109B4002220
:040920008A1A8B1B89
:10092400120AB8AA1CEAD39400748094804037EA6F
:1009340024FFFDE434FFFC7F107E001209FCAC1A96
:10094400AD1BCFCDCFCECCCE12083FEF540FFEC39C
:10095400940A74809480EE5004243080022437FF7B
:06096400120AAE1A80BF6A
:01096A00226A
:0409B5008A1F8B20EA
:1009B900120AB8AA21EAFF7E00D3940074809480B9
:1009C9004026EF24FFFDEE34FFFC7F021209FCAC48
:1009D9001FAD20CFCDCFCECCCE12083FEF5401248E
:0809E90030FF120AAE1A80CDA6
:0109F10022E3
:100AD600EF1FAC0670011E4C600A7D027CEFDCFE47
:040AE600DDFC80ECC7
:010AEA0022E9
:030000000208945F
:0C089400787FE4F6D8FD7581260208DBB1
:10080000BB010CE58229F582E5833AF583E02250AD
:1008100006E92582F8E622BBFE06E92582F8E222F7
:0D082000E58229F582E5833AF583E4932211
:10082D00EF8DF0A4A8F0CF8CF0A428CE8DF0A42EDF
:02083D00FE2299
:10083F00BC000BBE0029EF8DF084FFADF022E4CC9D
:10084F00F875F008EF2FFFEE33FEEC33FCEE9DEC66
:10085F00984005FCEE9DFE0FD5F0E9E4CEFD22EDAC
:10086F00F8F5F0EE8420D21CFEADF075F008EF2FF6
:10087F00FFED33FD4007985006D5F0F222C398FDE7
:05088F000FD5F0EA2284
:1008A000020A23E493A3F8E493A34003F68001F241
:1008B00008DFF48029E493A3F85407240CC8C33359
:1008C000C4540F4420C8834004F456800146F6DF28
:1008D000E4800B0102040810204080900B22E47E8B
:1008E000019360BCA3FF543F30E509541FFEE4931D
:1008F000A360010ECF54C025E060A840B8E493A3E4
:10090000FAE493A3F8E493A3C8C582C8CAC583CA0E
:10091000F0A3C8C582C8CAC583CADFE9DEE780BEC6
:010B260000CE
:00000001FF
